:020000001628C0
:0E0006008312031321088A00200882000800DC
:1000140003208A110A128000840AA00A0319A10A83
:08002400F003031D0A28080087
:10002C008316031788018901031387018312870143
:10003C00FF3083168500880183128801392801302E
:10004C008800073087004928023088000530870077
:10005C004928043088000D30870049280830880072
:10006C000930870049280508013A03192528050895
:10007C00023A03192A280508043A03192F280508FF
:0A008C00083A0319342824284A28F2
:04400E00D2230007B2
:00000001FF
